:020000040800F2
:10000000A8560024F9030008375F000811570008BC
:10001000355F00082F070008556D0008000000003C
:10002000000000000000000000000000390300088C
:10003000B10B00080000000095030008796100087A
:100040001304000813040008130400081304000834
:100050001304000813040008130400081304000824
:1000600013040008130400081304000831070008F3
:100070003D07000849070008550700086107000808
:100080006D0700081304000813040008B90B0008EA
:1000900013040008130400081304000813040008E4
:1000A00013040008130400081304000813040008D4
:1000B00013040008130400084D630008130400082B
:1000C00013040008130400081304000813040008B4
:1000D00013040008996C0008D96C0008196D000819
:1000E00013040008130400080000000013040008B3
:1000F0001304000813040008130400081304000884
:100100001304000813040008130400081304000873
:100110001304000813040008130400081304000863
:100120001304000813040008130400081304000853
:100130001304000813040008130400081304000843
:1001400000000000000000000000000000000000AF
:100150001304000813040008130400081304000823
:100160001304000813040008130400081304000813
:100170001304000813040008130400080000000022
:1001800013040008130400081304000813040008F3
:1001900013040008130400081304000813040008E3
:1001A00013040008130400081304000813040008D3
:1001B00013040008130400081304000813040008C3
:1001C00013040008130400081304000813040008B3
:1001D00013040008130400081304000813040008A3
:1001E0001304000813040008130400081304000893
:1001F0001304000813040008130400081304000883
:100200001304000813040008130400081304000872
:100210001304000813040008130400081304000862
:100220001304000813040008130400080000000071
:100230001304000813040008000000001304000861
:100240001304000813040008130400081304000832
:100250001304000813040008130400081304000822
:100260001304000813040008130400081304000812
:100270001304000813040008130400080000000021
:100280001304000813040008130400080000000011
:10029000000000001304000800F002F800F03CF831
:1002A0000AA090E8000C82448344AAF10107DA45D1
:1002B00001D100F031F8AFF2090EBAE80F0013F0E7
:1002C000010F18BFFB1A43F001031847348B0000DD
:1002D000548B0000103A24BF78C878C1FAD852076E
:1002E00024BF30C830C144BF04680C6070470000B0
:1002F0000023002400250026103A28BF78C1FBD82F
:10030000520728BF30C148BF0B6070471FB508F0C7
:10031000BFFC1FBD10B510BD00F0D0F91146FFF7AE
:10032000F5FF06F067FD00F0EEF903B4FFF7F2FF0A
:1003300003BC00F0F5F900002C4B19680868B0E820
:10034000F04F80F30988BFF36F8F4FF0000080F308
:10035000118870470000000008480068006880F3BA
:1003600008884FF0000080F3148862B661B6BFF3CE
:100370004F8FBFF36F8F00DF00BF00BF08ED00E0BD
:10038000DFF80C00016841F470010160704700BFA4
:1003900088ED00E0EFF30980BFF36F8F134B1A680D
:1003A0001EF0100F08BF20ED108A20E9F04F1060FA
:1003B00009B44FF0500080F31188BFF34F8FBFF3A3
:1003C0006F8F07F025FF4FF0000080F3118809BC04
:1003D00019680868B0E8F04F1EF0100F08BFB0ECC5
:1003E000108A80F30988BFF36F8F704734000024B0
:1003F000EFF305807047000009488047094800472F
:10040000FEE7FEE7FEE7FEE7FEE7FEE7FEE7FEE7C4
:10041000FEE7FEE704480549054A064B7047000021
:100420007162000899020008A8500024A856002410
:10043000A8520024A852002453EA020C00F069805C
:100440002DE9F04B4FF00006002B1FBFB3FA83F5E8
:1004500003FA05F424FA05F65E4012BF1643B2FA19
:1004600082F502FA05F4C5F120051EBF22FA05FC4B
:1004700044EA0C04203556EA044C4FEA144418BFF1
:10048000641C4FF000084FF00009904271EB030C20
:1004900039D3002919BFB1FA81F701FA07F6B0FA8A
:1004A00080F700FA07F6C7F120071EBF20FA07FC05
:1004B00046EA0C062037B6FBF4FCA7EB0507103F15
:1004C00007F01F0BCBF120060CFA0BFB2CFA06F6FB
:1004D00044BFB3460026202FA4BF5E464FF0000B5A
:1004E0005BEA060C08BF4FF0010B19EB0B09ABFBE5
:1004F000027C48EB0608C01B06FB02CC0BFB03CCBE
:1005000071EB0C01C1E70B46024641464846BDE887
:10051000F08B13B54FF000004FF00001AFF30080F7
:10052000BDE81C407047032A40F2308010F0030CF5
:1005300000F0158011F8013BBCF1020F624498BF36
:1005400011F801CB00F8013B38BF11F8013BA2F1D3
:10055000040298BF00F801CB38BF00F8013B11F04E
:10056000030300F02580083AC0F0088051F8043BEE
:10057000083A51F804CBA0E80810F5E7121D5CBF5B
:1005800051F8043B40F8043BAFF30080D20724BF8E
:1005900011F8013B11F801CB48BF11F8012B24BF22
:1005A00000F8013B00F801CB48BF00F8012B704771
:1005B00010B5203AC0F00B80B1E81850203AA0E8FE
:1005C0001850B1E81850A0E81850BFF4F5AF5FEA32
:1005D000027C24BFB1E81850A0E8185044BF18C9E5
:1005E00018C0BDE810405FEA827C24BF51F8043B8C
:1005F00040F8043B08BF7047D20728BF31F8023BE0
:1006000048BF11F8012B28BF20F8023B48BF00F873
:10061000012B704702F0FF0343EA032242EA024241
:1006200000F02CB84FF0000200B5134694469646F1
:10063000203922BFA0E80C50A0E80C50B1F12001F5
:10064000BFF4F7AF090728BFA0E80C5048BF0CC0A3
:100650005DF804EB890028BF40F8042B08BF704701
:1006600048BF20F8022B11F0804F18BF00F8012B73
:1006700070477047704770474FF000020429C0F080
:10068000128010F0030C3FF4CFAFCCF1040CBCF19E
:10069000020F18BF00F8012BA8BF20F8022BA1EB16
:1006A0000C01FFF7C1BF5FEAC17C24BF00F8012B3A
:1006B00000F8012B48BF00F8012B7047754600F089
:1006C0002BF8AE4605006946534620F007008546E4
:1006D00018B020B5FFF79EFEBDE820404FF00006A1
:1006E0004FF000074FF000084FF0000B21F007011A
:1006F000AC46ACE8C009ACE8C009ACE8C009ACE85D
:10070000C0098D46704710B50446AFF300802046FF
:10071000BDE81040FFF709BE004870474450002470
:1007200001491820ABBEFEE7260002007047FEE735
:10073000014800F079BE0000BC030024014800F02D
:1007400073BE000034040024014800F06DBE0000B8
:10075000AC040024014800F067BE0000240500241A
:10076000014800F061BE00009C050024014800F033
:100770005BBE000014060024294A016891423AD069
:10078000274A1832914236D0254A3032914232D02F
:10079000234A483291422ED0214A603291422AD0D7
:1007A0001F4A7832914226D01D4A9032914222D07F
:1007B0001B4AA83291421ED01A4A91421BD0194AB4
:1007C0001832914217D0174A3032914213D0154A4D
:1007D000483291420FD0134A603291420BD0114AF5
:1007E0007832914207D00F4A9032914203D00D4A9D
:1007F000A832914211D1CAB21823103AB2FBF3F2D7
:100800006FF30901032A02F00703074AD25CC265AD
:1008100000D9091D81650846704721F0FF01F9E7FD
:100820001000024010040240888D000830B5224AB2
:10083000012301689142CAB21BD01F4C1434A1425B
:1008400017D01D4C2834A14213D01B4C3C34A1427C
:100850000FD0194C5034A1420BD0174C6434A14234
:1008600007D0154C7834A14203D0134C8C34A142EC
:100870000CD11421114C083AB2FBF1F10F4A80322D
:1008800001F01F0504EB8101AB4010E00C4D182472
:10089000103A0D44B2FBF4F1A82D00D80831094AF2
:1008A00001F01F0402EB8101064AA3408032603050
:1008B00080E80E0030BD000008540258005802586D
:1008C000F0FBFDBF0008024010B50279531E072B54
:1008D0002DD8174C0168A1421BD0154C1434A142ED
:1008E00017D0134C2834A14213D0114C3C34A142F0
:1008F0000FD00F4C5034A1420BD00D4C6434A142A8
:1009000007D00B4C7834A14203D0094C8C34A1425F
:1009100003D10849074C443102E00749064C4431F1
:1009200004EB8202C0E91B2101219940416710BDFF
:1009300008540258FC580258FC08024010B583695C
:100940004FF0C074826A0146002053B1B3F5005FD6
:1009500015D072B1012A0CD0022A0AD0032A09D17B
:1009600004E01AB1012A06D0022A03D1C96AC901DA
:1009700000D5012010BDC96AA142FAD010BD002ADD
:10098000F7D0012AF2D0022AF3D0032AF3D010BD07
:100990002DE9F04F804E804FDFF8FC911836DFF8DC
:1009A000F8A148370468856D0AF1300ADFF8ECB128
:1009B0004C45DFF8ECC1DFF8ECE16DD0B4426BD010
:1009C000544569D0BC4267D0DFF8D081A8F118083F
:1009D000444561D05C455FD064455DD074455BD0D3
:1009E000DFF8C481444557D0DFF8BC8108F118080E
:1009F000444551D0DFF8B08108F1300844454BD070
:100A0000DFF8A48108F14808444545D0DFF8988113
:100A100008F1600844453FD0DFF88C8108F1780880
:100A2000444539D0DFF8808108F19008444533D03F
:100A3000DFF8748108F1A80844452DD0DFF86C81F7
:100A4000444529D0DFF8648108F11408444523D0D7
:100A5000DFF8588108F1280844451DD0DFF84C81A3
:100A600008F13C08444517D0DFF8408108F15008F0
:100A7000444511D0DFF8348108F1640844450BD0B7
:100A8000DFF8288108F17808444505D0DFF81C819B
:100A900008F18C08444509D1D0E91948C4F804800C
:100AA000C46E1CB1D0E91C48C4F8048004684C45ED
:100AB0002ED0B4422CD054452AD0BC4228D0374E38
:100AC000183EB44224D05C4522D0644520D0744501
:100AD0001ED0354EB4421BD0334E1836B44217D018
:100AE000314E3036B44213D02F4E4836B4420FD078
:100AF0002D4E6036B4420BD02B4E7836B44207D020
:100B0000294E9036B44203D0274EA836B44215D1B0
:100B100090F85C603F2406F01F06B440AC600468A7
:100B2000256825F4802525602EE09A600068C16064
:100B3000BDE8F08F99600068C260F9E71B4EB442CF
:100B40001BD01A4E1436B44217D0184E2836B44271
:100B500013D0164E3C36B4420FD0144E5036B44229
:100B60000BD0124E6436B44207D0104E7836B442E1
:100B700003D00E4E8C36B442DAD190F85C6001247A
:100B800006F01F06B4406C60046863608368402B05
:100B90000368CFD1C9E7000010000240880002407E
:100BA000A0000240B800024010040240085402585D
:100BB000704772B6FEE70000014801F05BBC000020
:100BC0000C0100240C4B40F2011210B50024C3E9C3
:100BD0000024C3E902411C6119465C6102469C6124
:100BE00001F14400DC611C6201F006FB002802D028
:100BF000FFF7DFFF012010BDC8000024F0B5036837
:100C00004FF6FC716D4C426BD3F884508D4345EA2E
:100C10008205C3F88450036853F8845F068F25F477
:100C20007F0545EA06451D60836B654D9F18026888
:100C3000D2F888308B4343EA8703C2F888300268D1
:100C400052F8883F868F23F4FE0343EA064313607D
:100C5000066856F8A03FC26B8B4307EB420243EA9B
:100C600082033360076857F8A03FB0F8406023F470
:100C7000FE0343EA06433B60D0E9103603FB06223D
:100C80000368D3F8B0608E4346EA8206C3F8B060CA
:100C90000368B0F84860D3F8B07027F4FE0747EA5D
:100CA0000646C3F8B060D0E91267036806FB072266
:100CB000D3F8AC608E4346EA8206C3F8AC60D0E954
:100CC0001467036806FB0722D3F8F0608E4346EAF8
:100CD0008206C3F8F0600368B0F85860D3F8F0708B
:100CE00027F47C1747EA0646C3F8F0600368876D6F
:100CF00053F8C06F02EB47028E4346EA8201196047
:100D00000168B0F85C20D1F8C03023F47C1343EACA
:100D10000242C1F8C020016890F86020D1F8C030CC
:100D200023F07C5343EA0262C1F8C020416B04EB1C
:100D30008101C166826B01EB82020267C36B02EB29
:100D4000C3024267D0E91034634302EB8302826737
:100D5000D0E91234634302EB8302C267D0E9143452
:100D6000634302EB8302C0F88020836D02EBC30370
:100D7000C0F88430C46D826E544303EB8403C0F822
:100D80008830046E544303EB8402C0F89020AA42DA
:100D90000AD9D0F89C20032142F02002C0F89C2000
:100DA00080F898100120F0BD002200E004C1D0F8C6
:100DB00090308B42FAD80020F0BD000000AC00401B
:100DC000FCD30040F0B58E680C69D1E9005744EAC5
:100DD0000604DFB145F080452C43866ED1E906C597
:100DE0004F695E4391F8203045EA0C05B1F80CC01C
:100DF000D0F884E0002047EA0363104F1D430EEB58
:100E0000860345EA0C45E3E8024511E044EA8544DF
:100E1000E3E71418155CA67894F803C094F801E091
:100E2000360445EA0C6446EA0E252C43001D10C327
:100E3000CC683C5D8442ECD8F0BD00002C8D0008ED
:100E40002DE9F84F044601F0A5FF00903CB194F85D
:100E50003500022806D0802161650020E4E00120F1
:100E6000BDE8F88FC74DC74EC649183520683036E3
:100E7000DFF81483DFF814938842DFF814A3DFF857
:100E800014B32ED0A8422CD0B0422AD0404528D04E
:100E9000484526D0504524D0584522D0BD4A183266
:100EA00090421ED0BC4A90421BD0BB4A183290429E
:100EB00017D0B94A3032904213D0B74A48329042E4
:100EC0000FD0B54A603290420BD0B34A783290428C
:100ED00007D0B14A9032904203D0AF4AA832904234
:100EE00009D1026822F01E0202602068426922F0E5
:100EF0008002426103E0026822F00E02026027686D
:100F00008F4238464DD0A8424BD0B04249D04045E0
:100F100047D0484545D0504543D0584541D09D4ADB
:100F2000183290423DD09C4A90423AD09A4A1832A8
:100F3000904236D0984A3032904232D0964A483267
:100F400090422ED0944A603290422AD0924A78320F
:100F5000904226D0904A9032904222D08E4AA832B7
:100F600090421ED08D4A90421BD08C4A143290423F
:100F700017D08A4A2832904213D0884A3C32904295
:100F80000FD0864A503290420BD0844A643290424D
:100F900007D0824A7832904203D0804A8C329742FE
:100FA00004D1206E026822F48072026075492068C4
:100FB000884228D0A84226D0B04224D0404522D032
:100FC000484520D050451ED058451CD07149183195
:100FD000884218D07049884215D06F49183188422C
:100FE00011D06D49303188420DD06B49483188426B
:100FF00009D069496031884205D067497831884213
:1010000001D065499031016821F0010101600EE0D5
:1010100001F0C0FE0099401A052808D92022626517
:101020000321002084F8351084F8340017E738686D
:10103000C007EDD1534A0121206890422ED0A8422A
:101040002CD0B0422AD0404528D0484526D0504523
:1010500024D0584522D04F4B183398421ED04E4BC7
:1010600098421BD04C4B1833984217D04A4B303320
:10107000984213D0484B483398420FD0464B6033C8
:1010800098420BD0444B7833984207D0424B903370
:10109000984203D0404BA833984208D194F85C7032
:1010A0003F23A06D07F01F07BB40836007E094F863
:1010B0005C30A06D03F01F0301FA03F34360206866
:1010C00090424DD0A8424BD0B04249D0404547D085
:1010D000484545D0504543D0584541D02D4A183257
:1010E00090423DD02C4A90423AD02B4A183290423E
:1010F00036D0294A3032904232D0274A4832904284
:101100002ED0254A603290422AD0234A783290422B
:1011100026D0214A9032904222D01F4AA8329042D3
:101120001ED01E4A90421BD01C4A1432904217D047
:101130001A4A2832904213D0184A3C3290420FD0BB
:10114000164A503290420BD0144A6432904207D073
:10115000124A7832904203D0104A8C3290420BD11E
:10116000D4E919024260E06E30B1026822F4807264
:101170000260D4E91C024260002084F8351084F833
:1011800034006DE61000024058000240700002403A
:1011900088000240A0000240100402400854025897
:1011A0002DE9F05F28B190F83510022904D0802194
:1011B00041650120BDE8F09F904C904B0168183CC0
:1011C00018338E4ADFF83C92A1428D4CDFF838E2AA
:1011D0008E4FDFF83CB2DFF83CA28F4D8F4E31D0FE
:1011E00091422FD099422DD0A1422BD0494529D0F0
:1011F000714527D0B94225D0DFF810C20CF1180C88
:1012000061451FD0DFF808C2ACF1600C614519D010
:10121000DFF8FCC1ACF1480C614513D0DFF8F0C138
:10122000ACF1300C61450DD0DFF8E4C1ACF1180C25
:10123000614507D0594505D0514503D0A94201D099
:10124000B1422CD1DFF8B4C14FF0040880F83580EA
:10125000ACF1180C61451DD091421BD0994219D0B8
:10126000A14217D0494515D0714513D0B94211D0CC
:101270006648183081420DD065486038814209D0F7
:1012800063484838814205D061483038814201D0F6
:101290005F481838086820F001000860ABE0D1F81A
:1012A00000C02CF00E08DFF854C1C1F80080ACF18A
:1012B000180C0168614527D0914225D0994223D06E
:1012C000A14221D049451FD071451DD0B9421BD044
:1012D000DFF838C10CF1180C614515D0DFF830C1CA
:1012E000ACF1600C61450FD0DFF824C1ACF1480CC3
:1012F000614509D0DFF818C1ACF1300C614503D06D
:10130000DFF80CC1ACF1180CD1F800C02CF0010CC6
:10131000C1F800C0DFF8E4804FF0010C0168A8F1CB
:101320001808414546D0914244D0994242D0A1424A
:1013300040D049453ED071453CD0B9423AD0334ABD
:101340001832914236D0324A603A914232D0304A15
:10135000483A91422ED02E4A303A91422AD02C4A15
:10136000183A914226D0594524D0514522D0A9425D
:1013700020D0B1421ED02A4A91421BD0284A1432B2
:10138000914217D0264A2832914213D0244A3C3247
:1013900091420FD0224A503291420BD0204A6432FF
:1013A000914207D01E4A7832914203D01C4A8C32B7
:1013B000914218D1016E0A6822F480720A6090F896
:1013C0005C20816D02F01F020CFA02F24A60D0E943
:1013D00019124A60C16E31B10A6822F480720A6043
:1013E000D0E91C124A600022016D80F835C080F8F7
:1013F000342001B188470020DCE6000028000240CC
:10140000580002407000024088000240A0000240E4
:101410007004024088040240A0040240B804024064
:1014200008540258406D70472DE9FC5F0446F74EA2
:101430000020DFF8D88300904FF41652F44808F1EA
:101440001808A56DDFF8C493DFF8C0A3016809F19F
:10145000300920680AF1480AB1FBF2F1B04201916B
:101460002F68D5F800C0DFF8ACB335D041468842CC
:1014700032D0484530D050452ED058452CD0E54983
:101480001831884228D0E3493031884224D0E149DC
:101490004831884220D0E04988421DD0DE491831C9
:1014A000884219D0DC493031884215D0DA494831B8
:1014B000884211D0DFF860E30EF1600E70450BD06A
:1014C000D54A7832904207D0D34B9033984203D01C
:1014D000D149A83188427DD194F85C20082102F0DE
:1014E0001F0201FA02F23A424AD0B04232D04045DD
:1014F00030D048452ED050452CD058452AD0C54A2A
:101500001832904226D0C34A3032904222D0C14A8B
:10151000483290421ED0C04A90421BD0BE4A183278
:10152000904217D0BC4A3032904213D0BA4A483267
:1015300090420FD0B84A603290420BD0B64A78320F
:10154000904207D0B44A9032904203D0B24AA832B7
:10155000904203D1026802F0040202E0026802F045
:1015600008026AB1026822F00402026094F85C008A
:1015700000F01F008140A960606D40F001006065CF
:1015800094F85C00012100F01F008140394240D0F6
:101590002068B04234D0404532D0484530D0504524
:1015A0002ED058452CD09B4A1832904228D0994AC8
:1015B0003032904224D0974A4832904220D0964A06
:1015C00090421DD0944A1832904219D0924A30323B
:1015D000904200E0AFE113D08F4A483290420FD0E2
:1015E0008D4A603290420BD08B4A7832904207D0BD
:1015F000894A9032904203D0874AA83290427DD1E6
:10160000406910F0800F04D0A960606D40F00200C6
:10161000606594F85C00042100F01F0081403942AD
:101620003ED02068B04232D0404530D048452ED020
:1016300050452CD058452AD0764A1832904226D0B0
:10164000744A3032904222D0724A483290421ED0C0
:10165000714A90421BD0704A1832904217D06E4A9D
:101660003032904213D06C4A483290420FD06A4ACE
:10167000603290420BD0684A7832904207D0664A76
:101680009032904203D0644AA83290424ED1006812
:1016900010F0020F04D0A960606D40F00400606596
:1016A00094F85C00102100F01F008140394258D0AE
:1016B0002068B04234D0404532D0484530D0504503
:1016C0002ED058452CD0534A1832904228D0514A37
:1016D0003032904224D04F4A4832904220D04E4A75
:1016E00090421DD04C4A1832904219D04A4A3032AA
:1016F000904215D0484A4832904200E014E00FD0A2
:10170000454A603290420BD0434A7832904207D02B
:10171000414A9032904203D03F4AA832904207D1CA
:10172000006800F0080006E0006872E70068B7E7AC
:10173000006800F00400A0B1A960206801684903B6
:1017400004D50068000308D5A16C07E00168C9054D
:1017500003D4016821F008010160216C09B1204621
:10176000884794F85C00202100F01F008140394236
:1017700079D02068B04232D0404530D048452ED094
:1017800050452CD058452AD0224A1832904226D0B3
:10179000204A3032904222D01E4A483290421ED017
:1017A0001D4A90421BD01C4A1832904217D01A4A48
:1017B0003032904213D0184A483290420FD0164A25
:1017C000603290420BD0144A7832904207D0124ACD
:1017D0009032904203D0104AA832904203D1006860
:1017E00000F0100002E0006800F00200B0B3A96051
:1017F00094F835000428206801680FD049037ED58D
:10180000006800032BD4616C2AE000001000024045
:101810002C000024700002401004024021F0160148
:1018200001602068416921F080014161206C08B9A4
:10183000A06C20B12068016821F00801016094F8D3
:101840005C303F21012003F01F0300229940A96072
:1018500084F8350084F83420216D65E003E0E16B05
:1018600009B120468847606D00287DD0606DC007B3
:1018700059D02068042184F83510B0422BD040455F
:1018800029D0484527D0504525D0584523D09D49DB
:10189000884220D09B49183188421CD09949303168
:1018A000884218D09849884215D097491831884203
:1018B00011D09549303188420DD093494831884242
:1018C00009D091496031884205D08F4978318842EA
:1018D00001D08D499031016821F00101016020683B
:1018E0000099019A491C0091914202D80168C907E8
:1018F000F6D10068C00710D003200FE0FFE70168B1
:10190000C905ACD403680121002223F01003036051
:1019100084F8351084F83420A1E7012084F83500DC
:10192000002084F83400E16C00291DD002B020466C
:10193000BDE8F05F0847754988421DD073491431EE
:10194000884219D071492831884215D06F493C31FD
:10195000884211D06D49503188420DD06B496431B5
:10196000884209D0694900E084E07831884203D098
:1019700066498C3188427DD194F85C8004270168E7
:1019800008F01F0807FA08F717EA0C0F009746D06F
:101990004F0744D500980F04686003D5C8033CD4B2
:1019A000A16CC1E7880638D42068B0422DD05549D3
:1019B0006039884229D0484527D0504525D0584520
:1019C00023D05049884220D04E49183188421CD03B
:1019D0004C493031884218D04B49884215D04A4989
:1019E0001831884211D04849303188420DD04649DB
:1019F0004831884209D0704507D0904205D09842BE
:101A000003D04149A831884203D1016821F008017F
:101A100002E0016821F004010160216C84E70227E3
:101A200007FA08F717EA0C0F00974ED08F074CD52E
:101A300000980F04686003D5C80344D4616C73E751
:101A4000880640D42068B0422FD02E4960398842A1
:101A50002BD0484529D0504527D0584525D0294975
:101A6000884222D02749183188421ED0254930317A
:101A7000884200E044E018D02349884215D022492A
:101A80001831884211D02049303188420DD01E498A
:101A90004831884209D0704507D0904205D098421D
:101AA00003D01949A831884203D1016821F01401FB
:101AB00002E0016821F00A010160012184F835107B
:101AC000002084F83400E16B2EE7082202FA08F2C5
:101AD00012EA0C0F14D0090712D5016821F00E018B
:101AE000016094F85C100120002201F01F0100FA4F
:101AF00001F16960606584F8350084F8342012E7EC
:101B0000BDE8FC9F880002401004024008540258BF
:101B10002DE9F05F044601F03DF9002C07467DD029
:101B2000E34E022120684FF00308DFF888934FF05E
:101B30000005DFF884A3B042DFF880B334D0DC4A7C
:101B40001832904230D048452ED050452CD05845C0
:101B50002AD0DA4A1832904226D0D84A30329042FF
:101B600022D0D64A483290421ED0D54A90421BD04D
:101B7000D34A1832904217D0D14A3032904213D013
:101B8000CF4A483290420FD0CD4A603290420BD0BB
:101B9000CB4A7832904207D0C94A9032904203D063
:101BA000C74AA83290427DD184F83510B04284F8FB
:101BB00034502ED0BE49183188422AD0484528D00A
:101BC000504526D0584524D0BC491831884220D0F1
:101BD000BA49303188421CD0B8494831884218D0BF
:101BE000B749884215D0B6491831884211D0B44956
:101BF000303188420DD0B2494831884209D0B049CD
:101C00006031884205D0AE497831884201D0AC4974
:101C10009031016821F00101016008E027E100BF77
:101C200001F0B8F8C01B052801D920211CE120686B
:101C30000068C007F4D104F108002168D4E9053C2C
:101C40008E4685C809681043D4E907281F43636A94
:101C500038439C4F40EA0C001043394040EA0800EA
:101C6000042B40EA010003D1D4E90B1211430843CD
:101C7000954909686FF30F01B1F1005F0FD36168F7
:101C8000A1F12902052A08D9163A032A05D9083AEA
:101C9000012A02D94F39032901D840F48010CEF827
:101CA000000000E023E02068676A4069042F20F00C
:101CB000070047EA00070DD1D4E90A01074349B1FB
:101CC0002046FEF73BFE28B140206065012184F8E4
:101CD0003510CCE0206847612046FEF74DFD94F8B2
:101CE0005C203F2102F01F029140816054E0774A5E
:101CF00090421BD0754B1433984217D0734B283346
:101D0000984213D0714B3C3398420FD06F4B5033F5
:101D100098420BD06D4B6433984207D06B4B7833AD
:101D2000984203D0694B8C3398427DD184F83510AA
:101D300084F83450664B0168A26801EA030E402A19
:101D400073D0802A72D00022D4E90378D4E9053117
:101D500042EAD70242EAD8085C4AD4E9077C48EA5A
:101D6000D30848EAD10141EAD701524241EA1C11A5
:101D7000142341EA0E01016020681044B0FBF3F027
:101D80008000E0652046FEF7F7FC94F85C20012116
:101D900002F01F02914041602068B04257D0444990
:101DA0001831884253D0484551D050454FD05845FE
:101DB0004DD042491831884249D04049303188429B
:101DC00045D03E494831884241D03D4988423ED0C5
:101DD0003B49183188423AD039493031884236D0AF
:101DE00037494831884232D03549603188422ED057
:101DF0003349783188422AD031499031884226D0FF
:101E00002F49A831884222D0304988421FD02F491B
:101E1000143188421BD02D492831884217D02B49D4
:101E20003C31884213D002E01DE017E018E027495A
:101E3000503188420BD025496431884207D023496C
:101E40007831884203D021498C31884229D12046FB
:101E5000FEF7ECFCA06880280CD00CE0102273E7A1
:101E60004FF4804270E74021616584F8358001209D
:101E7000BDE8F09F6560216E20790860D4E9190102
:101E800041606068401E072808D82046FEF71CFD08
:101E9000E06E0560D4E91C01416002E0E56625675B
:101EA00065670120656584F835000020E0E70000E3
:101EB0001000024040000240580002407000024002
:101EC000100402403F8010FE0010005C08540258CD
:101ED0000F00FEFF2DE9F84F04008C464FF0000084
:101EE000009014D094F83400012812D094F83550A2
:101EF0000120002184F83400012D0CD0C00260655F
:101F00000120009084F834100098BDE8F88F01207B
:101F1000FBE70220F9E78C4D0226206884F8356043
:101F2000A8428A4D61658A4E8A4FDFF82C82DFF81D
:101F30002C92DFF82CA2DFF82CB226D0A84224D0B5
:101F4000B04222D0B84220D040451ED048451CD0D7
:101F500050451AD0584518D08349884215D0824937
:101F60001831884211D08049303188420DD07E49E5
:101F70004831884209D07C496031884205D07A498D
:101F80007831884201D078499031016821F001010F
:101F9000016061462046FEF7FBFC6B4920688842E1
:101FA0002CD0A8422AD0B04228D0B84226D04045F2
:101FB00024D0484522D0504520D058451ED06A4AEA
:101FC00090421BD0684A1832904217D0664A30328D
:101FD000904213D0644A483290420FD0624A603235
:101FE00090420BD0604A7832904207D05E4A9032DD
:101FF000904203D05C4AA83290420CD1026822F091
:102000001E0242F016020260206C88B1206802684D
:1020100042F008020BE0026822F00E0242F00A02CF
:102020000260206C20B12068026842F00402026065
:10203000206888424BD0A84249D0B04247D0B8422D
:1020400045D0404543D0484541D050453FD0584504
:102050003DD0454A90423AD0434A1832904236D059
:10206000414A3032904232D03F4A483290422ED0DC
:102070003D4A603290422AD03B4A7832904226D084
:10208000394A9032904222D0374AA83290421ED02C
:10209000364A90421BD0354A1432904217D0334A08
:1020A0002832904213D0314A3C3290420FD02F4A0E
:1020B000503290420BD02D4A6432904207D02B4AC6
:1020C0007832904203D0294A8C3290420DD1206E52
:1020D0000268D20303D5026842F480720260E06EA7
:1020E00018B1026842F4807202602068884226D0EB
:1020F000A84224D0B04222D0B84220D040451ED0C1
:1021000048451CD050451AD0584518D01649884229
:1021100015D015491831884211D013493031884201
:102120000DD011494831884209D00F4960318842A9
:1021300005D00D497831884201D00B4990310168B2
:1021400041F001010160DFE610000240280002407A
:1021500040000240580002407000024088000240E7
:10216000A0000240B8000240100402400854025887
:1021700010B590F89830012B09D0022B07D0D0F879
:102180009C1041F00201C0F89C10012010BD0368B2
:102190009C6D0C4203D1DC6D44F0010404E09C6DA5
:1021A00031EA04041FD00324DC658B0505D50368E0
:1021B000D3F8E0401443C3F8E0404B0505D503686D
:1021C000D3F8E4401443C3F8E4400068084A01EA45
:1021D0000203446D074A1C434465106840EA91704D
:1021E0001060002010BDDC6D44F00204DCE700004C
:1021F000FFFFCF3F14A8004070B5044690F8980048
:10220000022804D0D4F89C0040F008000DE02068BB
:10221000D0F8C03013F07C5F0BD0D0F8C4309B02F4
:102220000CD5D4F89C0040F40070C4F89C00012048
:1022300070BDD4F89C0040F02000F6E7D0F8C40050
:10224000C0F3044520462B46FEF7BCFD2168012063
:10225000A840C1F8D000C4F89400002070BD7047B9
:1022600070B590F89820012A09D0022A07D0D0F83A
:102270009C1041F00201C0F89C10012070BD0B6859
:10228000CA6883B10B69072A43EA427325D00C7AE6
:102290004A6942EA84724968006F00EBC100C0E9F4
:1022A0000032002070BD072A0DD00C7AD6060D8AA8
:1022B0004B6943EA847246EA0543C06E49681A4393
:1022C00040F82120EDE70B8A4FF06055D1E9062454
:1022D00042EA034245EA0423EFE78A69DBE77047F5
:1022E00070470000F0B590F898500024022D04D0FB
:1022F000D0F89C1041F0080129E0402905D041297F
:1023000029D0056D8D4219D942E00568D5F8A06045
:1023100016F4FE0F12D0D5F8A460760613D0D5F8C7
:10232000A460F60105D5D5F8A06016F0004F00D5E1
:102330000124D5F8A470466F456C24E0D0F89C10B9
:1023400041F0200103E0D0F89C1041F48071C0F806
:102350009C100120F0BD0568D5F8B06016F4FE0FA2
:10236000ECD0D5F8B4607606EDD0D5F8B460F601BF
:1023700005D5D5F8B06016F0004F00D50124D5F88A
:10238000B470866FC56CC7F305273C44654302E013
:10239000456DC66F4D4306EB85052E6816F08046E9
:1023A00056602E6836D026F060461660D5F800C01C
:1023B00000262E4F0CF0005CC2F808C0D5F800C013
:1023C0000CF0004CC2F810C0B5F804C01FFA8CFC29
:1023D000C2F81CC0D5F804C0CCF3034CC2F80CC042
:1023E000D5F804C00CF4801CC2F814C0D5F804C0A1
:1023F0000CF4001CC2F818C0D5F804C0CCF3066C6D
:10240000C2F820C0D5F804C008354FEADC7CC2F819
:1024100024C008E0C6F38A46C7E700BF15F806C027
:1024200003F806C0761CD2F80CC017F80CC0B445EF
:10243000F4D840290AD041290CD020294FF00102BC
:102440000CD200688A40C0F898200DE00068C0F8FF
:10245000A84009E00068C0F8B84005E0006801F055
:102460001F018A40C0F89C200020F0BD2C8D000880
:10247000704700002DE9FF5FDFF80CB304460BF155
:102480000401DBF8000025680F68AA468007D5F82C
:102490005090696DD5F850806E6D2A6DD5F854C096
:1024A0002B6D00EA8770009009F470496F6D286DFC
:1024B00001EA09010191DAF85410DAF85490DAF8D7
:1024C000505008F00F0806EA0806029602F0F002E3
:1024D00003F071536FEA09061F4000F060700CEAC8
:1024E000020CCDF80CC0F20501EA00090CD4E84357
:1024F000C00509D400214FF48073CAF85030CBF8DE
:1025000000102046FFF7B4FF700512D4E8434005E1
:102510000FD4206800234FF48068D0F8DC20D0F876
:10252000E410C0F85080CBF800301140204600F095
:1025300011FBDFF858A2009850B12268830F00EA1F
:102540000A001065CBF8003020460099FFF787FE9F
:10255000019850B12268830F00EA0A001065CBF899
:1025600000302046019900F0F7FA029850B1226835
:10257000830F00EA0A001065CBF80030204602996C
:1025800000F078FA039850B12268830F00EA0A003D
:102590001065CBF800302046039900F0BBFA3005F7
:1025A0000CD4E843000509D4236800204FF40062EE
:1025B0001A65CBF80000204600F0CFFAB00512D41F
:1025C000E84380050FD4206800234FF40078D0F84A
:1025D000D820D0F8E010C0F85080CBF8003011407F
:1025E000204600F0B8FA30030CD4E843000309D4C5
:1025F000236800204FF400221A65CBF80000204623
:1026000000F036FAF0030CD4E843C00309D4236881
:1026100000204FF480321A65CBF80000204600F00D
:1026200098FA70030CD4E843400309D422680020D0
:102630004FF480231365CBF80000204600F088FAA1
:10264000B0030FD4E84380030CD4236800204FF478
:1026500000321A65CBF80000D4F89C0040F08000EE
:10266000C4F89C00B9F1000F0BD022684FEA9973AF
:1026700009EA0A001065CBF8003049462046FFF70A
:102680002FFE5FB12268BB0F07EA0A001065CBF886
:102690000030D4F89C003843C4F89C003C492068C2
:1026A000884268D1606881468068800763D0D9F825
:1026B0002060D9F82410D9F82080D9F82400D9F85E
:1026C00020C0D9F82470D9F82030D9F82450D9F88E
:1026D000202003F4FC4306F00F0AD9F824601D40C3
:1026E000D9F824B008F030080CF4C07C02F4F022D1
:1026F00011EA0A0100EA080807EA0C0706EA0206DE
:10270000D9F820A004D0C9F82010204600F01DFA06
:10271000B8F1000005D0616808624146204600F02B
:1027200016FA6FEA0B0040060ED46FEA0A00400664
:102730000AD460684021C36BC26B01622046190C49
:1027400002F03F0200F002FA2FB1606807623946DA
:10275000204600F0F9F935B160680562D4F89C00B4
:102760002843C4F89C0036B160680662D4F89C0027
:102770003043C4F89C00D4F89C00002802D02046C6
:10278000FFF7ADFDBDE8FF9F10A80040FFFFCF3F62
:1027900000A000402DE9F04194B08D494C22044640
:1027A0006846FDF705FF64B18A4D2068A84202D152
:1027B00000F58070606094F898004FF0000820B138
:1027C00008E0012014B0BDE8F081204684F899802B
:1027D00000F002F92068816921F01001816100F0A8
:1027E000D9FA0327064604E000F0D4FA801B0A2831
:1027F00011D8206880690007F6D42068816941F00B
:102800000101816100F0C6FA06460DE000F0C2FA4F
:10281000801B0A2808D9D4F89C0040F00100C4F8B5
:102820009C0084F89870CCE720688069C007EDD0E0
:102830002068816941F002018161207C01282068C3
:10284000816937D041F040018161607C01282068B6
:10285000816932D021F480418161A07C0128206807
:1028600081692DD041F4805181612068A26881691D
:1028700021F44071114381612068816921F0A40134
:1028800081612068016921F010010161E06801287F
:1028900019D010B302281BD02068816941F0800153
:1028A00081612068016941F010010161E06803283D
:1028B0000ED012E021F04001C6E741F48041CBE7A1
:1028C00021F48051D0E72068816941F0040103E0E0
:1028D0002068816941F020018161207E6FF0FF0254
:1028E000D4E90773A68A1102400602EB0727A0F17C
:1028F0000070384327685B1E184301EB06463043DF
:10290000F861A068B0F5407F11D104F12800A68CD1
:102910006FF00F0C89C801EB0641401E02EB032249
:10292000104322680CEB071318430843D060206E55
:1029300030B12068626ED0F8C0101143C0F8C010EA
:10294000D4E917126846D14209D02168A36E51F824
:10295000C82F50F8233022F007021A430A60216C76
:1029600049B12168626C51F8BC3F50F8226023F0F5
:10297000070232430A60A16C51B12168E36C51F83F
:10298000BC2F50F8233022F0700242EA03120A6092
:10299000216D51B12168626D51F8BC3F50F82200A1
:1029A00023F4E06242EA002008602068A84204D1D3
:1029B0006068816821F003018160C4F8948001217E
:1029C000C4F89C8084F898102046FEF717F9F9E6C1
:1029D0003C8D000800A0004010B5B6B0044614219C
:1029E00030A8FDF71FFEC0216846FDF71BFE1D49FC
:1029F0002068884234D100201C904FF40041CDE97A
:102A00000010684600F0BEFE08B1FEF7D2F8164886
:102A1000016841F480710160006800F480703590B5
:102A200011480C38016841F00101016000680DF1A6
:102A3000C00C022100F0010035900122032309247B
:102A40004FF4C0508CE81F00084830A900F086F809
:102A500000220521132000F0E3FC132000F0D2FC3B
:102A600036B010BD00A00040EC44025800000258EF
:102A70007047000010B5214A8AB0016891423AD1EE
:102A80001F49204B8A69521C8A6140216A46FFF720
:102A900029FC08B1FEF78DF8009811282BD11948B0
:102AA000F2EE090ABAEE090AC478B0F801300179E9
:102AB0004279240158BA01F00F0344EA111410219D
:102AC00042EA032305F0A6F90F4A0C21DFED0F0AB5
:102AD000204682ED000A9FED0E0A05F09BF982ED7B
:102AE000010A0C211846F3EE020ABBEE020A05F0B9
:102AF00091F982ED020A0AB010BD000000A000406A
:102B0000E84F0024B8000024305000240000344274
:102B1000000034C2704790F89810012907D0D0F80F
:102B20009C1041F00401C0F89C1001207047022164
:102B300080F89810002201688B6923F001038B61F3
:102B4000C0F89C2010467047704770477047704728
:102B50007047704770477047704770472DE9F84FCE
:102B600003247D4D00234FF001094FF0B04B4FF08F
:102B70000F0AE9E009FA03F73A4076D00E7906F039
:102B80000306012E01D0022E18D1D0F808C04FEA5A
:102B9000430ECE6804FA0EF82CEA080C06FA0EF67C
:102BA00046EA0C068660D0F804C00E792CEA070CC1
:102BB000C6F300169E4046EA0C0646600E79F643C0
:102BC000B6070BD0C6684FEA43088F6804FA08FCC2
:102BD00026EA0C0607FA08F73743C7600E7906F0B5
:102BE0000306022E12D1DE080F694FEA437C00EB88
:102BF0008606B646366A4FEADC6C0AFA0CF807FA23
:102C00000CF726EA08063743CEF820700F790668DD
:102C10004FEA430807F0030704FA08FC07FA08F72D
:102C200026EA0C06374307604E6816F4403F1CD076
:102C30004A4E376847F00207376036689F0706F04C
:102C40000206009623F0030606F1B046B6463F0F93
:102C5000D6F80864DFF808810AFA07FC404526EA3E
:102C60000C0603D14FF0000C41E06CE0DFF8F4C03B
:102C7000604502D14FF0010C39E0DFF8ECC060454F
:102C800002D14FF0020C32E0DFF8E0C0604502D123
:102C90004FF0030C2BE0DFF8D8C0604502D14FF0B5
:102CA000040C24E0DFF8CCC0604502D14FF0050CE5
:102CB0001DE0DFF8C4C0604502D14FF0060C16E0FD
:102CC000DFF8B8C0604502D14FF0070C0FE0DFF825
:102CD000B0C0604502D14FF0080C08E0DFF8A4C096
:102CE000604502D14FF0090C01E04FF00A0C0CFADC
:102CF00007FC4CEA060CCEF808C44F68DBF800600D
:102D0000FF0226EA020600D516435F46CBF80060B4
:102D1000D1F804C0DBF804605FEA8C2C26EA0206D6
:102D200000D516437E606E684F6826EA0206BF0330
:102D300000D516436E602E684F6826EA0206FF0330
:102D400000D516432E605B1C0A6832FA03F67FF446
:102D500011AFBDE8F88F000080000058F44402581D
:102D6000000002580004025800080258000C0258E3
:102D7000001002580014025800180258001C025893
:102D8000002002580024025801480068000C7047D7
:102D90000010005C0148806870470000200000249B
:102DA00030B590F84120202A24D190F84020012A03
:102DB00020D0012380F84030242280F841202023B5
:102DC00000240268156825F0010515600268156881
:102DD00025F480551560026815680D43156001687B
:102DE0000A6842F001020A6080F8413080F84040F1
:102DF000002030BD022030BD30B590F84120202A9F
:102E000022D190F84020012A1ED0012380F84030C2
:102E1000242280F84120202400250268136823F032
:102E2000010313600268136823F4706343EA01210D
:102E3000116001680A6842F001020A6080F84140AE
:102E400080F84050002030BD022030BD70B5040035
:102E500004D094F84100002510B106E0012070BDB7
:102E6000204684F8405000F0AFF9242084F8410057
:102E70002068016821F001010160D4E9001020F010
:102E8000706008612068816821F400418160E06819
:102E900021680128A06830D040F404408860E068D0
:102EA0000228206841682BD021F40061416020682D
:102EB0002021154A4368134343602068C26822F406
:102EC0000042C26054F8106B0DCC104340EA03205E
:102ED000F06054F81C3CD4E900021043186054F828
:102EE0001C0D026842F001020260656484F8411022
:102EF000256384F84250002070BD40F40040CDE7C7
:102F000041F40061D2E70000008000022DE9FF4F8C
:102F100083B0044690F841009A469346DDE9108755
:102F2000DDF84890202874D15FEA080014D09FB1E2
:102F300094F8400001286CD0012084F84000FFF78D
:102F400029FF0122064619230090D103204602F0F2
:102F5000F5FC002871D103E04FF4007060646CE070
:102F60000025C4F82480222184F84110402084F8F0
:102F7000420065646785534665635A460499204656
:102F8000CDE9009602F05EFC10B184F8405054E0A8
:102F9000618DFF2734484FF08078FF294FF0007A89
:102FA00004D927853A464346009005E0618D534693
:102FB0002185009094F828202046049902F0A6FC70
:102FC00000224B4604212046009602F0B7FCA0BB2D
:102FD0002068616A406A0870606A401C6062208DE7
:102FE000401E81B22185608D401E6085608DD8B104
:102FF000D1B900224B4680212046009602F09EFC6B
:10300000D8B9608DFF2805D927853A4643460095F3
:1030100006E026E0608D53462085009594F8282030
:103020002046049902F072FC608D0028C8D1324617
:103030004946204602F0C0FC18B1012007B0BDE8A7
:10304000F08F21682020094AC86121684B6813402D
:103050004B6084F8410084F84250002084F84050CE
:10306000ECE70220EAE700000024008000E800FE10
:103070002DE9FF4F83B0044690F841009A469346ED
:10308000DDE91087DDF84890202871D15FEA08005B
:1030900014D09FB194F84000012869D0012084F831
:1030A0004000FFF777FE0122064619230090D10366
:1030B000204602F043FC00286ED103E04FF400707C
:1030C000606469E00025C4F82480212184F841105F
:1030D000402084F8420065646785534665635A461C
:1030E00004992046CDE9009602F0DEFB10B184F889
:1030F000405051E0608DFF274FF08078FF284FF05F
:10310000007A04D927853A464346009505E0608D4C
:1031100053462085009594F828202046049902F013
:10312000F5FB32464946204602F072FCA0BB606ABD
:10313000216800788862606A401C6062608D401E71
:103140006085208D401E80B22085618DD9B1D0B9B7
:1031500000224B4680212046009602F0EFFBD8B9B2
:10316000608DFF2805D927853A464346009506E03D
:1031700026E0608D53462085009594F8282020464F
:10318000049902F0C3FB608D0028CAD1324649463B
:10319000204602F011FC18B1012007B0BDE8F08F05
:1031A00020682021074AC1612068436813404360BA
:1031B00084F8411084F84250002084F84050ECE735
:1031C0000220EAE700E800FE10B5B6B0044614217C
:1031D00030A8FDF727FAC0216846FDF723FA184901
:1031E000206888422AD1002021900821CDE90010D2
:1031F000684600F0C7FA08B1FDF7DBFC114801682A
:1032000041F08001016000680DF1C00C122100F056
:103210008000359030200122032304248CE81F0015
:10322000094830A9FFF79AFC06480830016841F4C4
:1032300080010160006800F48000359036B010BD58
:1032400000580040E0440258001C025802488168BF
:10325000027811448160704720000024032010B5DB
:1032600000F0FEF801F006F90F4A104914681368DF
:10327000C4F3032203F00F038A5CC95C02F01F024F
:1032800001F01F01D0400A4A20FA01F111600949FA
:1032900008600F2000F010F808B1012010BD00F008
:1032A0009FF8002010BD000018440258B88D000897
:1032B000300000242C00002410B5102804468AB0E9
:1032C0002CD2002201461E2000F0AAF81E2000F099
:1032D00099F8174804601748016841F0040101603B
:1032E000006809A900F004000890684601F04EF853
:1032F0000598B0B101F09AF840000F4900220F4C38
:10330000B0FBF1F10E4840F2E7330460C0E903324C
:10331000491EC0E9011201F00DFC28B101200AB0DC
:1033200010BD01F083F8E8E7054801F035FCF6E749
:1033300024000024E844025840420F0000080040E6
:103340008C060024154BF0B5083B427813491A60EF
:103350000B680A1F23F001030B6043681360057BB1
:10336000C67A827A437B2D07847B45EA0665C77B54
:1033700090F809C0067A90F800E045EAC24040EAB9
:10338000834040EA444040EA074040EA0C2040EADB
:10339000460040EA0E000860F0BD0000A0ED00E02D
:1033A000BFF35F8F044800210368034A23F480338E
:1033B000036070321160704724ED00E0074A40F06E
:1033C0000100064970321060086840F480300860DF
:1033D000BFF34F8FBFF36F8F7047000024ED00E005
:1033E000074882B0016841F00201016000680022D4
:1033F0000F2100F002000090901E02B000F010B803
:10340000F4440258002809DB410900F01F0289003A
:10341000012001F1E0219040C1F800017047000057
:103420000E4BF0B41B680D46C3F30223C3F107062D
:10343000042E00D90426191D072901D2002300E01B
:10344000DB1E012404FA06F19C40491E2940641E3B
:10345000994014402143F0BC03F07DBC0CED00E02A
:10346000064900F0070210B54FF6FF040868044B48
:10347000204040EA02201843086010BD0CED00E037
:103480000000FA05134970B50A68D243520705D502
:10349000096801F00701814213D118E00A6822F09F
:1034A000070202430A60FFF775FC0A4D4FF47A7673
:1034B0000446083D07E000BFFFF76CFC001BB0426C
:1034C00001D9012070BD2868C0438004F4D40020D5
:1034D00070BD00000C48025810B500F085FF05498A
:1034E0000968054AC1F30211515C01F01F01C8408F
:1034F00010BD000020440258B88D0008494930B57D
:10350000484C0B1D0A68143409681D68246802F0D1
:103510000303C5F30012C1F30531C4F3CC04002941
:1035200014FB02F200EE102AF8EE400A75D03F4A72
:103530009FED3D1AB7EE000A6BB1DFED3D1A012B8E
:1035400001D0022B64D002EE101A1168F8EE422A64
:1035500081EEA22A21E0334C283C23689B0612D539
:10356000344B246801EE901A1168C4F3C104F8EEDC
:10357000612AE34001EE903AC1F30801F8EE611AC6
:1035800081EEA22A0BE001EE901ADFED2B2A00BF9C
:10359000F8EE611A116882EEA12AC1F3080101EE6A
:1035A000901A1168F8EE611A40EE811A71EE800AE5
:1035B00062EE200AC1F3462101EE101AB8EE411A5C
:1035C00031EE001AC0EE811ABCEEE11A80ED001A4D
:1035D0001168C1F3064101EE101AB8EE411A31EE3E
:1035E000001AC0EE811ABCEEE11A80ED011A1168D2
:1035F000C1F3066101EE101AB8EE411A31EE000A6D
:1036000080EE801ABCEEC10A80ED020A30BD04E0F3
:1036100001EE901ADFED092ABAE70021016041604E
:103620008160F3E72844025800000039384402580A
:103630000024744A0090D0030024744C20BCBE4B7C
:10364000494930B5484C0B1D0A681C3409681D688F
:10365000246802F00303C5F30022C1F30551C4F34B
:10366000CC04002914FB02F200EE102AF8EE400A06
:1036700075D03F4A9FED3D1AB7EE000A6BB1DFED02
:103680003D1A012B01D0022B64D002EE101A1168F2
:10369000F8EE422A81EEA22A21E0334C283C23682E
:1036A0009B0612D5344B246801EE901A1168C4F3BE
:1036B000C104F8EE612AE34001EE903AC1F308013B
:1036C000F8EE611A81EEA22A0BE001EE901ADFED0E
:1036D0002B2A00BFF8EE611A116882EEA12AC1F30D
:1036E000080101EE901A1168F8EE611A40EE811A95
:1036F00071EE800A62EE200AC1F3462101EE101A33
:10370000B8EE411A31EE001AC0EE811ABCEEE11A91
:1037100080ED001A1168C1F3064101EE101AB8EEEF
:10372000411A31EE001AC0EE811ABCEEE11A80EDAA
:10373000011A1168C1F3066101EE101AB8EE411AC0
:1037400031EE000A80EE801ABCEEC10A80ED020A5A
:1037500030BD04E001EE901ADFED092ABAE700213E
:10376000016041608160F3E728440258000000399D
:10377000404402580024744A0090D0030024744C42
:1037800020BCBE4B2DE9FE4F0546DFF8E48350F820
:10379000081B0024F64FC943019005F12800264676
:1037A00008F12408009008011DD4A86E50B1B0F5AE
:1037B000801F0CD0B0F5001F0ED0B0F5401F1ED0FA
:1037C00001240FE0386840F40030386017E00198B9
:1037D000022102F0B1FB03E00098022102F03CFC60
:1037E00004000CD026462888C043C00523D4A86D09
:1037F00005281ED2DFE800F00C11161B1B00AA6E74
:10380000D8F8001021F440111143C8F80010EAE77D
:10381000386840F40030386009E00198002102F077
:103820008BFB03E00098002102F016FC044674B103
:1038300000E0012426462888C043800528D4E86D8E
:1038400080281ED00CDC90B140280ED114E0AA6D67
:10385000D8F8001021F007011143C8F80010EAE77A
:10386000C02813D0B0F5807F10D001240FE0386855
:1038700040F40030386009E00198002102F05CFB60
:1038800003E00098002102F0E7FB04469CB12646C5
:103890002888DFF8DC92C04309F12C0940052CD4BC
:1038A000D5F8A800B0F5800F20D00DDCA0B1B0F5A0
:1038B000001F0FD115E0EA6DD8F8001021F4E07177
:1038C0001143C8F80010E3E7B0F5C00F13D0B0F50E
:1038D000000F10D001240FE0386840F40030386049
:1038E00009E00198002102F027FB03E00098002185
:1038F00002F0B2FB04467CB126462888C04300058E
:103900002DD4D5F8AC00B0F1007F21D00EDCA8B1E9
:10391000B0F1807F10D116E0D5F8A820D9F80010BA
:1039200021F460011143C9F80010E6E7B0F1407FCF
:1039300013D0B0F1806F10D001240FE0386840F44C
:103940000030386009E00198002102F0F5FA03E048
:103950000098002102F080FB044674B126462868D6
:10396000C04380011FD4E86CD8B110280FD02028A4
:1039700012D0302815D0012414E0D5F8AC20D9F8A5
:10398000001021F0E0611143C9F80010E7E7386842
:1039900040F40030386004E00198022102F0CCFAD3
:1039A000044674B126462888C043C0042BD4286E30
:1039B000B0F5005F20D00DDCA0B1B0F5805F0FD175
:1039C00015E06B48EA6C2030016821F030011143AA
:1039D0000160E8E7B0F5405F13D0B0F5804F10D03C
:1039E00001240FE0386840F40030386009E00198A5
:1039F000002102F0A1FA03E00098002102F02CFB64
:103A000004468CB126462888C043800429D4686EB9
:103A1000B0F5403F23D010DC08B3B0F5803F14D0A0
:103A2000B0F5003F0FD115E02A6ED8F8001021F450
:103A3000E0411143C8F80010E5E7B0F5802F0ED043
:103A4000B0F5A02F0BD001240AE00198012102F06B
:103A500073FA03E00098012102F0FEFA044694B1E3
:103A600026462888C04340042AD4D5F8B000B0F1D7
:103A7000405F23D010DC08B3B0F1805F14D0B0F108
:103A8000005F0FD115E06A6ED8F8001021F4E02134
:103A90001143C8F80010E4E7B0F1804F0ED0B0F148
:103AA000A04F0BD001240AE00198012102F044FA52
:103AB00003E00098012102F0CFFA044674B12646D3
:103AC0002888C04300041FD4286FD8B1B0F1805FAC
:103AD0000ED0B0F1005F10D0012414E0D5F8B02072
:103AE000D9F8001021F0E0411143C9F80010E7E7D0
:103AF000386840F40030386004E00198012102F099
:103B00001BFA044674B126462868C043C0011ED47F
:103B1000A86CD0B101280ED0022811D0032814D0EF
:103B2000012413E02A6FD8F8001021F0405111430E
:103B3000C8F80010E8E7386840F40030386004E066
:103B40000198022102F0F8F90446ACB12646286833
:103B5000DFF81CB0C043ABF11C0B400252D4054847
:103B6000016841F480710160FFF714F9824611E0A9
:103B70002C44025800480258FA48AA6C016821F007
:103B8000030111430160E2E7FFF704F9A0EB0A002B
:103B9000642835D8F4480068C005F5D58CBBDFF83B
:103BA000C4A3B5F8B4100AF1240ADAF8000001F44D
:103BB000407100F44070884211D0DAF80010DAF851
:103BC000002021F4407142F48032CAF80020DAF873
:103BD000002022F48032CAF80020CAF80010D5F87C
:103BE000B400B0F5807F1AD1FFF7D4F8029012E04C
:103BF000FFF7D0F80299411A41F2883081420AD980
:103C0000032426462878DFF85CA3C0430AF1080A9B
:103C1000C00721D03CE0DAF800008007E8D5D5F8ED
:103C2000B410C1F30120032858460DD0016821F4D7
:103C30007C510160B5F8B420DAF80010C2F30B0231
:103C40001143CAF80010DDE7C84A036802EA1112FE
:103C500023F47C511143ECE7E86F182816D005DCFB
:103C6000A0B1082808D0102804D10AE020280DD0DF
:103C700028280BD001240AE00198012102F05CF908
:103C800003E00098012102F0E7F9044664B12646FA
:103C90002878C04380071ED4A86F062819D2DFE811
:103CA00000F0160C11161616EA6FDAF8001021F063
:103CB00038011143CAF80010EAE70198012102F027
:103CC0003BF903E00098012102F0C6F904467CB1FB
:103CD00000E0012426462878C04340071FD4D5F8C9
:103CE0009400062819D2DFE800F0160C11161616FB
:103CF000AA6FDAF8001021F007011143CAF800108A
:103D0000E9E70198012102F017F903E00098012189
:103D100002F0A2F90446A4B100E001242646287866
:103D2000C04380062BD4D5F89000B0F1405F24D07A
:103D300011DC10B3B0F1805F15D0B0F1005F10D18D
:103D400016E0D5F89420D9F8001021F007011143AE
:103D5000C9F80010E3E7B0F1804F0ED0B0F1A04FEA
:103D60000BD001240AE00198002102F0E5F803E0FD
:103D70000098022102F070F9044694B12646287892
:103D8000C04340062BD4D5F89C00B0F5406F24D03A
:103D900011DC10B3B0F5806F15D0B0F5006F10D105
:103DA00016E0D5F89020DAF8001021F0E041114338
:103DB000CAF80010E3E7B0F5805F0ED0B0F5A05F61
:103DC0000BD001240AE00198002102F0B5F803E0CD
:103DD0000098022102F040F9044694B12646287862
:103DE000C04300062BD4D5F8A000B0F5C04F24D0B6
:103DF00011DC10B3B0F5005F15D0B0F5804F10D1D5
:103E000016E0D5F89C20D9F8001021F4E0511143B8
:103E1000C9F80010E3E7B0F5004F0ED0B0F5204F21
:103E20000BD001240AE00198002102F085F803E09C
:103E30000098022102F010F9044654B12646287871
:103E4000C04300071ED4D5F88400B0F5805F0AD0C7
:103E50000FE0D5F8A020D9F8001021F460411143FB
:103E6000C9F80010EBE70098022102F0F5F800B164
:103E70000126D5F88420DAF8001021F440511143CE
:103E8000CAF800102878C043C00613D4D5F89800AB
:103E9000B0F5807F05D10098022102F0DDF800B175
:103EA0000126D5F89820D9F8001021F4407111436B
:103EB000C9F800102868C043000316D4D5F8A40040
:103EC00038B1B0F5803F09D0B0F5003F0BD00124E8
:103ED0000AE00198002102F02FF803E00098022187
:103EE00002F0BAF804468CB126462868C043400365
:103EF00022D4D5F88800B0F5801F11D0B0F5001F8E
:103F000013D0B0F5401F15D0012414E0D5F8A4203B
:103F1000D9F8001021F440311143C9F80010E4E74A
:103F2000386840F40030386004E00098012102F065
:103F300093F804465CB126462868C043C00323D4E6
:103F4000286DA8B1B0F5803F17D001241BE0D5F84B
:103F50008820DAF8001021F440111143CAF800104B
:103F6000EAE700004C44025800480258CFFFFF0027
:103F7000386840F40030386004E00198022101F014
:103F8000DBFF0446E4B126462868C043800005D420
:103F90000098022102F060F800B101262868C043B1
:103FA00080031BD4D5F88000B0B1B0F5807F0FD06E
:103FB000B0F5007F10D0B0F5407F0DD001240CE0AB
:103FC0005A482A6D016821F4803111430160DBE712
:103FD000386840F400303860ECB326462868C043A7
:103FE000C00207D46A6FD8F8001021F000411143D5
:103FF000C8F800102868C043C00008D4D5F8B8201D
:10400000DBF8001021F480411143CBF80010286840
:10401000C043800207D4EA6ED8F8001021F0807106
:104020001143C8F800102868C04340000CD4DBF8E6
:10403000001021F40041CBF80010DBF80010D5F897
:10404000BC201143CBF800102868C04308D437487F
:104050006A6D016800E018E021F0405111430160F1
:104060002868C043000208D4D5F88C20DAF8001084
:1040700021F440011143CAF8001028790024C043FC
:1040800000F0010020430AD00FE0D5F88020DAF8D4
:10409000001021F440711143CAF800109EE7019806
:1040A000002101F049FF00B106462879C04300F025
:1040B0000200204305D10198012101F03DFF00B12C
:1040C00006462879C04300F00400204305D101983A
:1040D000022101F031FF00B106462879C04300F00B
:1040E0000800204305D10098002101F0B5FF00B180
:1040F00006462879C04300F01000204305D10098FF
:10410000012101F0A9FF00B106462879C04300F063
:104110002000044304D10098022101F09DFF00B962
:1041200016B10120BDE8FE8F0020FBE74C44025889
:104130002DE9F05F04000F467ED0DFF83882D8F812
:10414000000000F00F00B8420CD2D8F8001021F0A7
:104150000F013943C8F80010D8F8000000F00F0034
:10416000B84269D12078844D40070AD52069296872
:1041700001F07001884204D9296821F070010143DF
:10418000296020787C4E361D00070AD560693168A9
:1041900001F07001884204D9316821F070010143B7
:1041A00031602078C0060AD5A069316801F4E06169
:1041B000884204D9316821F4E061014331602078FC
:1041C000DFF8B4B180060BF1080B0CD5E169584655
:1041D000DBF8002002F07002914204D9026822F05C
:1041E00070020A430260207880070AD5E0682968D7
:1041F00001F00F01884204D9296821F00F01014321
:1042000029602078C0073ED05B49A2682868183929
:1042100020F47060104328606068022818D00328DA
:1042200019D00968012819D0490700294ADADFF8AE
:1042300048A1AAF1080A00E044E0DAF8002022F0E0
:1042400007020243CAF80020FEF7A4FD814612E0EF
:1042500009688903E9E709688901E6E7C905E4E730
:10426000FEF798FDA0EB090141F28830814202D9A6
:104270000320BDE8F09F6168DAF8000000F0380024
:10428000B0EBC10FECD1207880070AD5E06829682F
:1042900001F00F01884204D2296821F00F01014387
:1042A0002960D8F80010404601F00F01B9420BD93F
:1042B000016821F00F0139430160006800F00F0030
:1042C000B84201D00120D4E7207840070AD5206900
:1042D000296801F07001884204D2296821F0700138
:1042E00001432960207800070AD56069316801F030
:1042F0007001884204D2316821F0700101433160BD
:104300002078C0060AD5A069316801F4E0618842CE
:1043100004D2316821F4E0610143316020788006E5
:104320000CD5E1695846DBF8002002F0700291429A
:1043300004D2026822F070020A43026000F09AF888
:104340000E492A682B68C2F3032203F00F038A5C2C
:10435000C95C02F01F0201F01F01D040084A20FA98
:1043600001F111600749086007480068BDE8F05F87
:10437000FEF7A2BF0020005218440258B88D000872
:10438000300000242C0000242400002470B5144CBC
:104390003F220260124A24680832131D114D04F0B6
:1043A0000704446016681C1D06F470668660166873
:1043B00006F00F06C660126802F0700202611A6809
:1043C00002F0700242611A6802F4E06282612268BF
:1043D00002F07002C261286800F00F00086070BD32
:1043E000104402580020005230B500F043F80B4A48
:1043F0000B490C4B15681468C5F3032204F00F0435
:104400008A5C095D02F01F0201F01F01D040064ADC
:1044100020FA01F119601060084630BD18440258B6
:10442000B88D0008300000242C00002400B5FFF7F0
:10443000DBFF05490968054AC1F30211515C01F02F
:104440001F01C84000BD00001C440258B88D000880
:1044500000B5FFF7C9FF05490968054AC1F3022104
:10446000515C01F01F01C84000BD00001C4402580F
:10447000B88D0008454970B545480968434B103B65
:1044800011F0380208D00111082A03D0102A0BD0ED
:10449000182A0BD0084670BD19688906FBD5196823
:1044A000C1F3C101C84070BD3A4870BD3749374DAE
:1044B00018310C1D24350A68096826682D6802F039
:1044C000030406F00102C1F30511C5F3CC0515FB89
:1044D00002F200EE102AB8EE400AE9B32F4ADFEDEF
:1044E0002E0AB7EE001A6CB1DFED2D1A012C01D0A7
:1044F000022C43D002EE101A1068F8EE422A81EE28
:10450000A22A1EE01C68A40611D51B6801EE901AB1
:104510001168C3F3C103F8EE612AD84001EE900A96
:10452000C1F30800F8EE611A81EEA22A0BE001EE59
:10453000901ADFED1C2A00BFF8EE611A106882EEB7
:10454000A12AC0F3080001EE900AF8EE611A40EECD
:10455000201A31EE810A00E015E022EE000A106810
:10456000C0F34620401C00EE900AF8EE600A80EE90
:10457000201ABCEEC10A10EE100A70BD01EE901AAE
:10458000DFED092AD8E7002070BD00001044025872
:104590000090D00340787D0100000039304402587B
:1045A0000024744A0024744C20BCBE4B2DE9F05FFB
:1045B00004007DD0FF4F2078FE4D1837DFF8F493CC
:1045C000103DC00748D0D9F80000396800F0380025
:1045D000102815D0182803D101F0030002280FD0AD
:1045E0006068B0F5803F12D010B1B0F5A02F18D0A0
:1045F000286820F480302860286820F4802009E0B2
:104600002868800328D560680028D2D024E0286874
:1046100040F480302860606888B1FEF7BBFB064636
:1046200009E0286840F480202860F0E7FEF7B2FB3C
:10463000801B64286FD828688003F7D50CE0FEF74C
:10464000A9FB064605E000BFFEF7A4FB801B64281B
:10465000F0D828688003F7D4207841F20308D54EBB
:104660000C3E800769D5D9F80000396810F0380091
:104670000ED0182801D188070AD0E06890B32968C5
:1046800021F0190101432960FEF784FB824631E0E5
:104690002868400702D5E06800288AD0E1682868C9
:1046A00020F0190008432860FEF774FB824607E0FB
:1046B000DFE000BFFEF76EFBA0EB0A000228B9D8CE
:1046C00028684007F6D500BFFEF75EFB40451BD8C3
:1046D0002069402812D0316821F47C3141EA003051
:1046E00030602AE018E000BFFEF754FBA0EB0A00A0
:1046F00002289FD828684007F6D5E5E7306820F4FF
:104700007C3040F40030EBE7207C316821F0FE4142
:1047100041EA0060E4E70DE1286820F0010028602C
:10472000FEF738FB824605E0FEF734FBA0EB0A00FB
:1047300002288DD828684007F6D42078C0065DD5B9
:10474000D9F80000DFF86CB2396800F03800ABF13E
:10475000040B082810D0182803D101F00300012809
:104760000AD0E0690028286838D040F0800028602E
:10477000FEF710FB824623E02868C00523D5E069D8
:10478000802876D11FE0206A202821D0316821F0CE
:10479000F84141EA8060306030E000BF94F82010BA
:1047A000DBF8002022F07C5242EA0161CBF80010D5
:1047B00024E000BFFEF7EEFAA0EB0A00022898D82A
:1047C0002868C005F6D5FEF7DFFA4045E6D8DAE7F7
:1047D000306820F0F84040F08040DCE720F08000B6
:1047E0002860FEF7D7FA064605E000BFFEF7D2FACA
:1047F000801B02289DD82868C005F7D420780007C0
:1048000029D56C486169643000298046016811D05F
:1048100041F001010160FEF7BDFA064605E000BF68
:10482000FEF7B8FA801B0228C9D8D8F80000800724
:10483000F6D510E021F001010160FEF7ABFA064663
:1048400005E000BFFEF7A6FA801B022872D8D8F850
:1048500000008007F6D42078800623D5A0690028C0
:10486000286810D040F480502860FEF793FA06467E
:1048700005E036E1FEF78EFA801B02285AD8286838
:104880008004F7D50EE020F480502860FEF782FA0D
:10489000064604E0FEF77EFA801B02284AD8286804
:1048A0008004F7D4207840074FD5DFF80C81D8F882
:1048B000001041F48071C8F80010FEF76BFA06464C
:1048C00005E000BFFEF766FA801B642832D8D8F8EE
:1048D0000000C005F6D5374EA068603601280AD022
:1048E00008B1052813D0306820F00100306030682E
:1048F00020F0040002E0306840F001003060A06861
:1049000041F2883A90B1FEF745FA80460AE03068F5
:1049100040F004003060EEE7FEF73CFAA0EB08013F
:10492000514507D830688007F6D50EE0FEF732FA19
:10493000804607E084E000BFFEF72CFAA0EB0801F8
:1049400051457DD830688007F6D4606AB0B3DFF88F
:104950006480D9F8001008F120084FF6F87B08F1C0
:104960000409C1F3C2010329A8F1040A69D002288D
:10497000286820F08070286003D0FEF70BFA044608
:1049800084E0FEF707FA064605E000BFFEF702FAEC
:10499000801B022877D828688001F7D4E26A40F2A9
:1049A000F331386854F8283F884340EA021018432E
:1049B000386004E01044025800480258B5E0217BFA
:1049C000434622894FF4FE0C208A4FF0FE474902ED
:1049D000267D521E401EA1F50071C2F308088AB25E
:1049E000761E0CEA004042EA08020243504607EAFB
:1049F00006610A431A60DAF8002022F00102CAF8C0
:104A00000020D9F80020266A22EA0B0242EAC602F8
:104A1000C9F80020DAF80010A26921F00C01114356
:104A2000CAF800100168E26921F002011143016037
:104A3000016841F480310160016841F4003101E016
:104A400021E027E00160016841F4802101600168F4
:104A500041F001010160286840F080702860FEF795
:104A600099F9044605E000BFFEF794F9001B0228FF
:104A700009D828688001F7D557E000BFFEF78AF90A
:104A8000001B022802D90320BDE8F09F286880019E
:104A9000F4D44AE039680128D8F8000021D0A26A8D
:104AA00001F0030393421CD1E26AC1F305118A426B
:104AB00017D1216BC0F30802491E8A4211D1616BE4
:104AC000C0F34622491E91420BD1A16BC0F30642AE
:104AD000491E914205D1E16BC0F30660491E814237
:104AE00001D00120D0E7A16C4E46D9F80000C0F3F8
:104AF000CC00814219D0DAF80000554620F00100C0
:104B0000CAF80000FEF746F94FEA0007FEF742F93F
:104B1000B842FBD0A26C306820EA0B0040EAC20029
:104B20003060286840F0010028600020ACE7704742
:104B30007047704710B5040003D094F83D0010B1E1
:104B400007E0012010BD002084F83C00204600F062
:104B500022F8022084F83D002068211D01F0FCFBB2
:104B6000012084F8480084F83E0084F83F0084F86F
:104B7000400084F8410084F8420084F8430084F83F
:104B8000440084F8450084F8460084F8470084F81F
:104B90003D00002010BD704790F83D10012901D064
:104BA00001207047174A022180F83D100168CB6848
:104BB00043F00103CB600068904214D0B0F1804F05
:104BC00011D0114988420ED0104988420BD01049AB
:104BD000884208D00F49884205D00F49884202D048
:104BE0000E49884207D181680D4A1140062906D036
:104BF000B1F5803F03D0016841F001010160002060
:104C00007047000000000140000400400008004020
:104C1000000C00400004014000180040004001402A
:104C20000700010070472DE9F041044600680027A5
:104C3000C6680569A90713D5B10711D5FA1E026127
:104C400001212177206880698007204602D0FFF784
:104C5000E9FF04E000F08BF8204600F089F82777A0
:104C6000680716D5700714D5226802206FF004017A
:104C7000116120772068806910F4407F204602D0BF
:104C8000FFF7D0FF04E000F072F8204600F070F863
:104C90002777280715D5300713D5226804206FF031
:104CA0000801116120772068C0698007204602D082
:104CB000FFF7B8FF04E000F05AF8204600F058F87B
:104CC0002777E80616D5F00614D5226808206FF07D
:104CD0001001116120772068C06910F4407F2046E0
:104CE00002D0FFF79FFF04E000F041F8204600F0FB
:104CF0003FF82777E80708D0F00706D021686FF063
:104D000001000861204600F035F8280601D4A80407
:104D100008D5300606D521686FF402500861204698
:104D2000FFF706FFE80508D5300606D521686FF4C1
:104D3000807008612046FFF7FAFE680608D5700605
:104D400006D521686FF040000861204600F01CF88D
:104D5000A8060AD5B00608D521686FF020000861C2
:104D60002046BDE8F041FFF7E4BEBDE8F0817047A2
:104D70007047000000680349884201D1FEF766BA17
:104D80007047000000080040704730B590F884106C
:104D9000012918D0012280F884202421C0F888102D
:104DA0000022202401680B680D6823F0005325F0D1
:104DB00001050D60426601680B60C0F8884080F80C
:104DC0008420104630BD022030BD7047704770B55A
:104DD000044690F8840001281DD0012284F8842024
:104DE0002420C4F8880020680568026822F00102C7
:104DF00002602068826822F060620A438260204676
:104E000001F012FB2268202100201560C4F88810F0
:104E100084F8840070BD022070BD70B5044690F81F
:104E2000840001281DD0012284F884202420C4F8A5
:104E3000880020680568026822F00102026020688C
:104E4000826822F060420A438260204601F0ECFA58
:104E50002268202100201560C4F8881084F884009E
:104E600070BD022070BD70477047D0F888102129AE
:104E700009D10168083151E8002F42F0800241E871
:104E80000023002BF5D1D0F88C10222921D1026803
:104E900008211162016941B1026852E8001F41F422
:104EA000807142E80013002BF6D10168083151E807
:104EB000002F42F0010241E80023002BF5D10168E8
:104EC000083151E8002F42F0400241E80023002B56
:104ED000F5D10020704770B501680446D0F888000D
:104EE0001025D4F88C608968090618D5212816D1B8
:104EF0002068083050E8001F21F0800140E80012CF
:104F0000002AF5D1E06F38B1FBF79AFF20B1E06FCE
:104F1000FCF788FA202823D0204601F031FC2068D5
:104F2000806840061AD5222E18D12068083050E833
:104F3000001F21F0400140E80012002AF5D1D4F80A
:104F4000800040B1FBF77CFF28B1D4F88000FCF76B
:104F500069FA202804D0204601F0E8FB002070BD4B
:104F6000C4F89050032070BD704700002DE9F04157
:104F700007680025044640F60F030226F8693968E1
:104F8000BA6818420AD183067ED501F0200302F0E8
:104F9000805C53EA0C0377D0616F74E1CF4BDFF88C
:104FA00040C3134001EA0C0C53EA0C0C6CD05FEACE
:104FB000C07C0CD05FEAC15C09D54FF0010CC7F88A
:104FC00020C0D4F8907047F00107C4F890708707AC
:104FD00009D5D70707D027683E62D4F8906046F01D
:104FE0000406C4F8906046070AD5D60708D027689B
:104FF00004263E62D4F8906046F00206C4F8906041
:1050000006070CD501F020061E4308D026680823A9
:105010003362D4F8903043F00803C4F890300305AD
:105020000BD54B0109D526684FF400633362D4F8E1
:10503000903043F02003C4F89030D4F89030002B27
:105040003DD0800609D501F0200002F080510843D0
:1050500003D0616F09B1204688472168D4F89000D9
:105060008968490602D410F0280F2AD0204601F0A2
:105070005DFB2068806840061ED52068083050E837
:10508000001F21F0400100E021E040E80012002A6A
:10509000F3D1D4F8800078B192490165D4F880004A
:1050A000FCF77EF800280AD0D4F88000016D00E0FB
:1050B0002046BDE8F04108472046FFF755FFBDE810
:1050C000F0812046FFF750FFC4F89050F7E7D4F87E
:1050D0006CC02023BCF1010F7ED15FEAC06C7BD590
:1050E0005FEAC16C78D5102038622068806840067D
:1050F00073D5D4F880107C4A0868904234D07A4A3C
:105100001832904230D0784A303290422CD0764AD1
:105110004832904228D0744A6032904224D0724A79
:105120007832904220D0704A903290421CD06E4A21
:10513000A832904218D06D4A904215D06B4A18326E
:10514000904211D0694A303290420DD0674A4832BD
:10515000904209D0654A6032904205D0634A783265
:10516000904201D0614A903240680004000CA6D001
:10517000B4F85C208242A2D9A4F85E00C869B0F5F8
:10518000807F2FD0216851E8000F20F4807041E823
:105190000002002AF6D12068083050E8001F21F0F4
:1051A000010140E80012002AF5D12068083050E8DB
:1051B000001F21F0400140E80012002AF5D1C4F898
:1051C0008C30E566216851E8000F20F0100041E8BE
:1051D0000002002AF6D101E040E00BE0D4F88000A4
:1051E000FBF72EFE2667B4F85C00B4F85E10401A98
:1051F00081B22FE0B4F85C00B4F85E10B4F85E2021
:10520000401A81B2002AB2D00029B0D0226852E8F8
:10521000000F20F4907042E80007002FF6D1344FC1
:10522000206800F1080050E8002F02EA070240E879
:10523000002CBCF1000FF3D1C4F88C30E566656733
:10524000206850E8002F22F0100240E80023002BD5
:10525000F6D126672046FFF7B8FD30E7C60209D52C
:10526000560207D54FF4801038622046BDE8F04161
:10527000FFF7FABD06060AD501F0800602F4000227
:10528000164304D0A16F00297FF412AF17E742063E
:1052900011D54A060FD52046026852E8001F21F0BA
:1052A000400142E80014002CF6D1C0F88830856730
:1052B00000F02CFA03E7020206D54A0004D5204686
:1052C000BDE8F041FFF7CFBDC001C6D50029C4DA63
:1052D0002046BDE8F041FFF779BD00000100001055
:1052E00020010004DF6500081000024010040240A5
:1052F000FEFFFFEF10B5040003D0D4F8880010B112
:1053000007E0012010BD002084F88400204600F052
:1053100027F82420C4F888002068016821F00101E2
:105320000160A06A10B1204601F0A0F8204601F00B
:105330003FFA0128E6D02068416821F4904141609D
:105340002068816821F02A0181602068016841F0AD
:10535000010101602046BDE8104001F0EBB80000FB
:105360002DE9F04FB7B00446142130A8FBF75AF9E5
:10537000C0216846FBF756F90227A54A20684FF47A
:105380004038A24D7E0290424FF001094FF0030ACF
:105390004FF0070B63D100201F900122CDE90020C0
:1053A0006846FEF7EFF908B1FBF703FC97481030A9
:1053B000016841F010010160006800F010003590B4
:1053C000286840F001002860286830AA4FF4C065C2
:1053D00000F0010030A9CDE934B082E8A0068D4884
:1053E000FDF7BCFBDFF8309200278C4A29234846A2
:1053F000C9F80020C0E90137C0E90376C9F8147084
:10540000C9F81870C9E90778C9F82470FCF780FB5F
:1054100008B1FBF7CEFB804D3846C4F8809040229F
:105420007835C9F838407D4B2A27C5E90220C5E9FF
:105430000460A8611833C5E9070868622846C5E911
:105440000037FCF765FB08B1FBF7B3FBE56700220B
:105450000521AC632520FDF7E3FF252066E0704AB7
:10546000904268D100201E900222CDE900206846BB
:10547000FEF788F908B1FBF79CFB64480830016827
:1054800041F400310160006800F400303590286874
:1054900040F001002860286830AA0C2500F00100C7
:1054A00030A9CDE934B082E8A0065A48FDF756FB92
:1054B000DFF864910027594A2B2309F1F009484687
:1054C0003032C9F80020C0E90137C0E90376C9F8D5
:1054D0001470C9F81870C9E90778C9F82470FCF786
:1054E00017FB08B1FBF765FB4E4D3846C4F88090BA
:1054F0004022C9F838402C27484BC5E90220C5E9AD
:105500000460A8614833C5E9070868622846C5E910
:105510000037FCF7FDFA08B1FBF74BFBE56700220B
:105520000521AC632620FDF77BFF2620FDF76AFFEF
:1055300037B0BDE8F08F3C4A9042F9D100231E936A
:1055400002226846CDE90023FEF71CF908B1FBF7FB
:1055500030FB2E480830016841F48021016000686A
:1055600000F480203590286840F002002860286808
:1055700030AA4FF4406500F0020030A9CDE934B004
:1055800082E8A0062948FDF7E9FA264F00252349BD
:105590002D2278376031384687E82600C0E9035667
:1055A0007D61BD61C7E907587D62FCF7B1FA08B1BA
:1055B000FBF7FFFADFF86C903946C4F88010402200
:1055C00009F1F009154B8C6309F108012E274846B3
:1055D000783381E86400C9F81450C9F81850C0E95C
:1055E0000037C9E90758C9F82450FCF791FA08B107
:1055F000FBF7DFFAC4F87C9000220521C9F8384097
:105600002720FDF70DFF272090E70000E044025817
:105610000010014000000258BC03002410000240AA
:1056200000440040240500240048004000040258C3
:1056300030B4D0F88C30202B02D0022030BC704720
:10564000A9B1A2B10B4D00240368C466AB420BD0D4
:105650005B681B0208D5046854E8003F43F0806390
:1056600044E80035002DF6D130BC01F077BA0120B6
:10567000E4E70000000C00587047704770B504461E
:10568000D0F88800202801D0022070BD39B332B391
:10569000E06F002321652125A4F85420A4F85620AA
:1056A000C4F89030C4F88850D8B11549C163E16F8F
:1056B00014480864E16F1448C864E06F036513463A
:1056C0002068E56F00F12802216D2846FCF702FCF6
:1056D00038B11021C4F890102020C4F888000120AF
:1056E00070BD2168402008622068083050E8001F23
:1056F00041F0800140E80012002AF5D1002070BD81
:10570000E366000823670008F365000870477047E8
:10571000FEE701688A69D243920701D400228A62B7
:1057200000688169C943C90703D0816941F001015B
:10573000816170472DE9F0470446006800268946DC
:1057400017464FF0200835468169C90641D510211A
:10575000C1612FE0B9F1FF3F2CD0FDF71BFBC11B4E
:10576000494502D8B9F1000F24D12068426894F865
:105770004210836902F48042DB431B0415D4B2F566
:10578000804F12D0202910D0416841F480414160FF
:10579000FDF700FB074608E0FDF7FCFAC01B1928DF
:1057A00003D9012645F0200504E020688069C04344
:1057B0008006F1D420688069C043800602D5002E9F
:1057C000C8D003E016B92168C1F81C80012645F055
:1057D000040521688869C20505D54FF48072CA6145
:1057E00045F00105012641050AD5216880054FF4E1
:1057F000806245F00805CA614FF0010602D40AE054
:10580000800507D5206801264FF4007145F0020598
:10581000C16100E08EB12046FFF77BFF20680021C8
:10582000074F43683B404360606C2843606484F8E2
:10583000418084F8421084F840103046BDE8F0877B
:1058400000E800FE2DE9F843174604461548DAB291
:10585000DDE908981E4600900023204600F056F827
:1058600042464946204600F0D3F8B8B9012EFDB2B1
:1058700008D02068390A816242464946204600F035
:10588000C7F858B920688562002240214B4620465F
:10589000CDF8008000F052F8002800D00120BDE8CB
:1058A000F8830000002000802DE9F84304461648E4
:1058B00017461E46DAB20090C3022046DDE908987A
:1058C00000F024F842464946204600F0A1F8B8B955
:1058D000012EFDB208D02068390A8162424649464D
:1058E000204600F095F858B9206885620022802192
:1058F0004B462046CDF8008000F020F8002800D06C
:105900000120BDE8F88300000020008070B5006829
:10591000C1F3090141EA0241074D049C19434FF4C8
:1059200080664268214306EA54532B439A4321F090
:1059300000410A43426070BDFF63FF032DE9F0415F
:105940001D4617460E460446DDF8188028E04246FC
:1059500029462046FFF7EEFE10B10120BDE8F08198
:10596000681C1DD0FDF716FAA0EB0800A84200D86D
:10597000B5B92068806936EA00000FD00020B8422F
:105980000ED1626C002084F84000202142F02002F9
:10599000626484F8411084F84200DEE70120EEE7FB
:1059A0002068806936EA000004D00020B842CED0DA
:1059B0000020D3E70120F9E770B516460D460446EE
:1059C0001FE0324629462046FFF7B4FE08B1012009
:1059D00070BDFDF7DFF9801BA84200D88DB92068A3
:1059E0008069C04380060CD5626C002084F84000BA
:1059F000202142F02002626484F8411084F84200C1
:105A0000E5E720688069C0438006DAD4002070BDD5
:105A100070B516460D46044621E03246294620461A
:105A2000FFF788FE08B1012070BD681C17D0FDF794
:105A3000B1F9801BA84200D88DB920688069C043A5
:105A400080070CD5626C002084F84000202142F0D1
:105A50002002626484F8411084F84200E3E7206881
:105A60008069C0438007D8D4002070BD01219020F8
:105A700008B501F00FFA40F080020121902001F0FA
:105A80002BFA02236A460021902001F017FA9DF8B4
:105A900000009FED310B410601D59FED310B8106D2
:105AA00003D59FED311B30EE010BC10603D5B3EEDC
:105AB000001B30EE010B010703D5B2EE001B30EEE8
:105AC000010B410703D5B1EE001B30EE010B81073E
:105AD00003D5B0EE001B30EE010BC00703D0B7EECC
